{
  "_format": "hh3-artifact-1",
  "contractName": "KYCRegistry_MuhammadShayanAhmed",
  "sourceName": "contracts/KYCRegistry_Student.sol",
  "abi": [
    {
      "inputs": [],
      "stateMutability": "nonpayable",
      "type": "constructor"
    },
    {
      "anonymous": false,
      "inputs": [
        {
          "indexed": true,
          "internalType": "address",
          "name": "user",
          "type": "address"
        },
        {
          "indexed": false,
          "internalType": "string",
          "name": "fullName",
          "type": "string"
        }
      ],
      "name": "KycApproved",
      "type": "event"
    },
    {
      "anonymous": false,
      "inputs": [
        {
          "indexed": true,
          "internalType": "address",
          "name": "user",
          "type": "address"
        },
        {
          "indexed": false,
          "internalType": "string",
          "name": "reason",
          "type": "string"
        }
      ],
      "name": "KycRejected",
      "type": "event"
    },
    {
      "anonymous": false,
      "inputs": [
        {
          "indexed": true,
          "internalType": "address",
          "name": "user",
          "type": "address"
        },
        {
          "indexed": false,
          "internalType": "string",
          "name": "fullName",
          "type": "string"
        },
        {
          "indexed": false,
          "internalType": "string",
          "name": "cnic",
          "type": "string"
        }
      ],
      "name": "KycSubmitted",
      "type": "event"
    },
    {
      "inputs": [],
      "name": "admin",
      "outputs": [
        {
          "internalType": "address",
          "name": "",
          "type": "address"
        }
      ],
      "stateMutability": "view",
      "type": "function"
    },
    {
      "inputs": [
        {
          "internalType": "address",
          "name": "user",
          "type": "address"
        }
      ],
      "name": "approve",
      "outputs": [],
      "stateMutability": "nonpayable",
      "type": "function"
    },
    {
      "inputs": [],
      "name": "getAllPending",
      "outputs": [
        {
          "internalType": "address[]",
          "name": "",
          "type": "address[]"
        }
      ],
      "stateMutability": "view",
      "type": "function"
    },
    {
      "inputs": [
        {
          "internalType": "address",
          "name": "user",
          "type": "address"
        }
      ],
      "name": "getKyc",
      "outputs": [
        {
          "components": [
            {
              "internalType": "string",
              "name": "fullName",
              "type": "string"
            },
            {
              "internalType": "string",
              "name": "cnic",
              "type": "string"
            },
            {
              "internalType": "enum KYCRegistry_MuhammadShayanAhmed.KycStatus",
              "name": "status",
              "type": "uint8"
            }
          ],
          "internalType": "struct KYCRegistry_MuhammadShayanAhmed.KycRequest",
          "name": "",
          "type": "tuple"
        }
      ],
      "stateMutability": "view",
      "type": "function"
    },
    {
      "inputs": [
        {
          "internalType": "address",
          "name": "user",
          "type": "address"
        }
      ],
      "name": "isVerified",
      "outputs": [
        {
          "internalType": "bool",
          "name": "",
          "type": "bool"
        }
      ],
      "stateMutability": "view",
      "type": "function"
    },
    {
      "inputs": [
        {
          "internalType": "address",
          "name": "user",
          "type": "address"
        },
        {
          "internalType": "string",
          "name": "reason",
          "type": "string"
        }
      ],
      "name": "reject",
      "outputs": [],
      "stateMutability": "nonpayable",
      "type": "function"
    },
    {
      "inputs": [
        {
          "internalType": "string",
          "name": "fullName",
          "type": "string"
        },
        {
          "internalType": "string",
          "name": "cnic",
          "type": "string"
        }
      ],
      "name": "submitKyc",
      "outputs": [],
      "stateMutability": "nonpayable",
      "type": "function"
    }
  ],
  "bytecode": "0x60a0604052348015600e575f5ffd5b5033608052608051610f356100405f395f818161011b015281816103e80152818161057501526107520152610f355ff3fe608060405234801561000f575f5ffd5b506004361061007a575f3560e01c8063caf8340a11610058578063caf8340a146100ce578063daea85c5146100ee578063f112ba7214610101578063f851a44014610116575f5ffd5b80631d8c56f41461007e578063227d029114610093578063b9209e33146100a6575b5f5ffd5b61009161008c366004610a7b565b610155565b005b6100916100a1366004610b02565b6103dd565b6100b96100b4366004610b51565b610552565b60405190151581526020015b60405180910390f35b6100e16100dc366004610b51565b6105af565b6040516100c59190610bb3565b6100916100fc366004610b51565b610747565b61010961089d565b6040516100c59190610c1f565b61013d7f000000000000000000000000000000000000000000000000000000000000000081565b6040516001600160a01b0390911681526020016100c5565b335f908152602081905260409020836101aa5760405162461bcd60e51b8152602060048201526012602482015271119d5b1b081b985b59481c995c5d5a5c995960721b60448201526064015b60405180910390fd5b816101e75760405162461bcd60e51b815260206004820152600d60248201526c10d39250c81c995c5d5a5c9959609a1b60448201526064016101a1565b6001600282015460ff16600381111561020257610202610b9f565b036102415760405162461bcd60e51b815260206004820152600f60248201526e416c72656164792070656e64696e6760881b60448201526064016101a1565b604051806060016040528086868080601f0160208091040260200160405190810160405280939291908181526020018383808284375f92019190915250505090825250604080516020601f8701819004810282018101909252858152918101919086908690819084018382808284375f92018290525093855250506001602093840152503381529081905260409020815181906102de9082610d02565b50602082015160018201906102f39082610d02565b50604082015160028201805460ff1916600183600381111561031757610317610b9f565b021790555050335f9081526003602052604090205460ff16905061038f576002805460018181019092557f405787fa12a823e0f2b7631cc41b3ba8828b3321ca811111fa75cd3aa3bb5ace0180546001600160a01b031916339081179091555f908152600360205260409020805460ff191690911790555b336001600160a01b03167f659b2e274b13c18f0f349ea0e895ef332bfbea5bde9ab0545ff9a124d29e1925868686866040516103ce9493929190610de5565b60405180910390a25050505050565b336001600160a01b037f000000000000000000000000000000000000000000000000000000000000000016146104425760405162461bcd60e51b815260206004820152600a60248201526927b7363c9030b236b4b760b11b60448201526064016101a1565b6001600160a01b0383165f9081526020819052604090206001600282015460ff16600381111561047457610474610b9f565b1480610497575060028082015460ff16600381111561049557610495610b9f565b145b6104d05760405162461bcd60e51b815260206004820152600a602482015269139bc81c995c5d595cdd60b21b60448201526064016101a1565b60028101805460ff199081166003179091556001600160a01b0385165f90815260016020526040902080549091169055610509846108fd565b836001600160a01b03167fbd10f4738c32024002c9bf6af6f1cb6a809134d11442f573dbab20794b1f16528484604051610544929190610e16565b60405180910390a250505050565b6001600160a01b0381165f9081526001602052604081205460ff16806105a957507f00000000000000000000000000000000000000000000000000000000000000006001600160a01b0316826001600160a01b0316145b92915050565b6105ce604080516060808201835280825260208201529081015f905290565b6001600160a01b0382165f90815260208190526040908190208151606081019092528054829082906105ff90610c7e565b80601f016020809104026020016040519081016040528092919081815260200182805461062b90610c7e565b80156106765780601f1061064d57610100808354040283529160200191610676565b820191905f5260205f20905b81548152906001019060200180831161065957829003601f168201915b5050505050815260200160018201805461068f90610c7e565b80601f01602080910402602001604051908101604052809291908181526020018280546106bb90610c7e565b80156107065780601f106106dd57610100808354040283529160200191610706565b820191905f5260205f20905b8154815290600101906020018083116106e957829003601f168201915b5050509183525050600282015460209091019060ff16600381111561072d5761072d610b9f565b600381111561073e5761073e610b9f565b90525092915050565b336001600160a01b037f000000000000000000000000000000000000000000000000000000000000000016146107ac5760405162461bcd60e51b815260206004820152600a60248201526927b7363c9030b236b4b760b11b60448201526064016101a1565b6001600160a01b0381165f9081526020819052604090206001600282015460ff1660038111156107de576107de610b9f565b146108195760405162461bcd60e51b815260206004820152600b60248201526a4e6f742070656e64696e6760a81b60448201526064016101a1565b6002818101805460ff1990811690921790556001600160a01b0383165f9081526001602081905260409091208054909216179055610856826108fd565b816001600160a01b03167f3b00576aad479b65b01c0558331cde76e9f6c0bb5c7c223bdd415565eeee3f64825f016040516108919190610e31565b60405180910390a25050565b606060028054806020026020016040519081016040528092919081815260200182805480156108f357602002820191905f5260205f20905b81546001600160a01b031681526001909101906020018083116108d5575b5050505050905090565b6001600160a01b0381165f9081526003602052604090205460ff1615610a33576001600160a01b0381165f908152600360205260408120805460ff191690555b600254811015610a3157816001600160a01b03166002828154811061096457610964610eb8565b5f918252602090912001546001600160a01b031603610a29576002805461098d90600190610ecc565b8154811061099d5761099d610eb8565b5f91825260209091200154600280546001600160a01b0390921691839081106109c8576109c8610eb8565b905f5260205f20015f6101000a8154816001600160a01b0302191690836001600160a01b031602179055506002805480610a0457610a04610eeb565b5f8281526020902081015f1990810180546001600160a01b0319169055019055610a31565b60010161093d565b505b50565b5f5f83601f840112610a46575f5ffd5b50813567ffffffffffffffff811115610a5d575f5ffd5b602083019150836020828501011115610a74575f5ffd5b9250929050565b5f5f5f5f60408587031215610a8e575f5ffd5b843567ffffffffffffffff811115610aa4575f5ffd5b610ab087828801610a36565b909550935050602085013567ffffffffffffffff811115610acf575f5ffd5b610adb87828801610a36565b95989497509550505050565b80356001600160a01b0381168114610afd575f5ffd5b919050565b5f5f5f60408486031215610b14575f5ffd5b610b1d84610ae7565b9250602084013567ffffffffffffffff811115610b38575f5ffd5b610b4486828701610a36565b9497909650939450505050565b5f60208284031215610b61575f5ffd5b610b6a82610ae7565b9392505050565b5f81518084528060208401602086015e5f602082860101526020601f19601f83011685010191505092915050565b634e487b7160e01b5f52602160045260245ffd5b602081525f825160606020840152610bce6080840182610b71565b90506020840151601f19848303016040850152610beb8282610b71565b915050604084015160048110610c0f57634e487b7160e01b5f52602160045260245ffd5b6060939093019290925250919050565b602080825282518282018190525f918401906040840190835b81811015610c5f5783516001600160a01b0316835260209384019390920191600101610c38565b509095945050505050565b634e487b7160e01b5f52604160045260245ffd5b600181811c90821680610c9257607f821691505b602082108103610cb057634e487b7160e01b5f52602260045260245ffd5b50919050565b601f821115610cfd57805f5260205f20601f840160051c81016020851015610cdb5750805b601f840160051c820191505b81811015610cfa575f8155600101610ce7565b50505b505050565b815167ffffffffffffffff811115610d1c57610d1c610c6a565b610d3081610d2a8454610c7e565b84610cb6565b6020601f821160018114610d62575f8315610d4b5750848201515b5f19600385901b1c1916600184901b178455610cfa565b5f84815260208120601f198516915b82811015610d915787850151825560209485019460019092019101610d71565b5084821015610dae57868401515f19600387901b60f8161c191681555b50505050600190811b01905550565b81835281816020850137505f828201602090810191909152601f909101601f19169091010190565b604081525f610df8604083018688610dbd565b8281036020840152610e0b818587610dbd565b979650505050505050565b602081525f610e29602083018486610dbd565b949350505050565b602081525f5f8354610e4281610c7e565b806020860152600182165f8114610e605760018114610e7c57610ead565b60ff1983166040870152604082151560051b8701019350610ead565b865f5260205f205f5b83811015610ea457815488820160400152600190910190602001610e85565b87016040019450505b509195945050505050565b634e487b7160e01b5f52603260045260245ffd5b818103818111156105a957634e487b7160e01b5f52601160045260245ffd5b634e487b7160e01b5f52603160045260245ffdfea264697066735822122075fb7485974a6ce6c8b99bfcb5de4285f9ce4a89a61a1d819e5787b7c155baf164736f6c634300081c0033",
  "linkReferences": {},
  "deployedLinkReferences": {},
  "immutableReferences": {
    "17": [
      {
        "length": 32,
        "start": 283
      },
      {
        "length": 32,
        "start": 1000
      },
      {
        "length": 32,
        "start": 1397
      },
      {
        "length": 32,
        "start": 1874
      }
    ]
  },
  "inputSourceName": "project/contracts/KYCRegistry_Student.sol",
  "buildInfoId": "solc-0_8_28-cf55072d13ebe7fc0ee2fb03089729c710f0ea88"
}