{
  "_format": "hh3-artifact-1",
  "contractName": "Crowdfunding_MuhammadShayanAhmed",
  "sourceName": "contracts/Crowdfunding_Student.sol",
  "abi": [
    {
      "inputs": [
        {
          "internalType": "contract IKYCRegistryMuhammadShayanAhmed",
          "name": "_kyc",
          "type": "address"
        }
      ],
      "stateMutability": "nonpayable",
      "type": "constructor"
    },
    {
      "anonymous": false,
      "inputs": [
        {
          "indexed": true,
          "internalType": "uint256",
          "name": "id",
          "type": "uint256"
        },
        {
          "indexed": true,
          "internalType": "address",
          "name": "creator",
          "type": "address"
        },
        {
          "indexed": false,
          "internalType": "string",
          "name": "title",
          "type": "string"
        },
        {
          "indexed": false,
          "internalType": "uint256",
          "name": "goal",
          "type": "uint256"
        }
      ],
      "name": "CampaignCreated",
      "type": "event"
    },
    {
      "anonymous": false,
      "inputs": [
        {
          "indexed": true,
          "internalType": "uint256",
          "name": "id",
          "type": "uint256"
        },
        {
          "indexed": true,
          "internalType": "address",
          "name": "from",
          "type": "address"
        },
        {
          "indexed": false,
          "internalType": "uint256",
          "name": "amount",
          "type": "uint256"
        },
        {
          "indexed": false,
          "internalType": "uint256",
          "name": "totalRaised",
          "type": "uint256"
        }
      ],
      "name": "Contributed",
      "type": "event"
    },
    {
      "anonymous": false,
      "inputs": [
        {
          "indexed": true,
          "internalType": "uint256",
          "name": "id",
          "type": "uint256"
        },
        {
          "indexed": true,
          "internalType": "address",
          "name": "to",
          "type": "address"
        },
        {
          "indexed": false,
          "internalType": "uint256",
          "name": "amount",
          "type": "uint256"
        }
      ],
      "name": "Withdrawn",
      "type": "event"
    },
    {
      "inputs": [],
      "name": "admin",
      "outputs": [
        {
          "internalType": "address",
          "name": "",
          "type": "address"
        }
      ],
      "stateMutability": "view",
      "type": "function"
    },
    {
      "inputs": [
        {
          "internalType": "uint256",
          "name": "id",
          "type": "uint256"
        }
      ],
      "name": "contribute",
      "outputs": [],
      "stateMutability": "payable",
      "type": "function"
    },
    {
      "inputs": [
        {
          "internalType": "string",
          "name": "title",
          "type": "string"
        },
        {
          "internalType": "string",
          "name": "description",
          "type": "string"
        },
        {
          "internalType": "uint256",
          "name": "goalWei",
          "type": "uint256"
        }
      ],
      "name": "createCampaign",
      "outputs": [],
      "stateMutability": "nonpayable",
      "type": "function"
    },
    {
      "inputs": [
        {
          "internalType": "uint256",
          "name": "id",
          "type": "uint256"
        }
      ],
      "name": "getCampaign",
      "outputs": [
        {
          "components": [
            {
              "internalType": "string",
              "name": "title",
              "type": "string"
            },
            {
              "internalType": "string",
              "name": "description",
              "type": "string"
            },
            {
              "internalType": "address payable",
              "name": "creator",
              "type": "address"
            },
            {
              "internalType": "uint256",
              "name": "goal",
              "type": "uint256"
            },
            {
              "internalType": "uint256",
              "name": "raised",
              "type": "uint256"
            },
            {
              "internalType": "enum Crowdfunding_MuhammadShayanAhmed.Status",
              "name": "status",
              "type": "uint8"
            }
          ],
          "internalType": "struct Crowdfunding_MuhammadShayanAhmed.Campaign",
          "name": "",
          "type": "tuple"
        }
      ],
      "stateMutability": "view",
      "type": "function"
    },
    {
      "inputs": [],
      "name": "getCampaignCount",
      "outputs": [
        {
          "internalType": "uint256",
          "name": "",
          "type": "uint256"
        }
      ],
      "stateMutability": "view",
      "type": "function"
    },
    {
      "inputs": [],
      "name": "kyc",
      "outputs": [
        {
          "internalType": "contract IKYCRegistryMuhammadShayanAhmed",
          "name": "",
          "type": "address"
        }
      ],
      "stateMutability": "view",
      "type": "function"
    },
    {
      "inputs": [
        {
          "internalType": "uint256",
          "name": "id",
          "type": "uint256"
        }
      ],
      "name": "withdraw",
      "outputs": [],
      "stateMutability": "nonpayable",
      "type": "function"
    }
  ],
  "bytecode": "0x60c0604052348015600e575f5ffd5b50604051610e6c380380610e6c833981016040819052602b91603f565b6001600160a01b03166080523360a052606a565b5f60208284031215604e575f5ffd5b81516001600160a01b03811681146063575f5ffd5b9392505050565b60805160a051610ddb6100915f395f61015301525f818160f501526107320152610ddb5ff3fe60806040526004361061006e575f3560e01c806390d6b45f1161004c57806390d6b45f146100e4578063c1cbbca71461012f578063f851a44014610142578063ffa56a5714610175575f5ffd5b80632e1a7d4d146100725780635598f8cc146100935780636caa9218146100c8575b5f5ffd5b34801561007d575f5ffd5b5061009161008c3660046109da565b610194565b005b34801561009e575f5ffd5b506100b26100ad3660046109da565b610382565b6040516100bf9190610a33565b60405180910390f35b3480156100d3575f5ffd5b505f546040519081526020016100bf565b3480156100ef575f5ffd5b506101177f000000000000000000000000000000000000000000000000000000000000000081565b6040516001600160a01b0390911681526020016100bf565b61009161013d3660046109da565b610551565b34801561014d575f5ffd5b506101177f000000000000000000000000000000000000000000000000000000000000000081565b348015610180575f5ffd5b5061009161018f366004610b0a565b61069d565b5f5481106101bd5760405162461bcd60e51b81526004016101b490610b7d565b60405180910390fd5b5f5f82815481106101d0576101d0610ba1565b5f918252602090912060069091020190506001600582015460ff1660028111156101fc576101fc610a1f565b146102395760405162461bcd60e51b815260206004820152600d60248201526c139bdd0818dbdb5c1b195d1959609a1b60448201526064016101b4565b60028101546001600160a01b031633146102845760405162461bcd60e51b815260206004820152600c60248201526b27b7363c9031b932b0ba37b960a11b60448201526064016101b4565b6004810180545f9182905560058301805460ff191660029081179091558301546040519192916001600160a01b039091169083908381818185875af1925050503d805f81146102ee576040519150601f19603f3d011682016040523d82523d5f602084013e6102f3565b606091505b50509050806103365760405162461bcd60e51b815260206004820152600f60248201526e151c985b9cd9995c8819985a5b1959608a1b60448201526064016101b4565b60028301546040518381526001600160a01b039091169085907fcf7d23a3cbe4e8b36ff82fd1b05b1b17373dc7804b4ebbd6e2356716ef2023729060200160405180910390a350505050565b61038a61098f565b5f5482106103aa5760405162461bcd60e51b81526004016101b490610b7d565b5f82815481106103bc576103bc610ba1565b905f5260205f2090600602016040518060c00160405290815f820180546103e290610bb5565b80601f016020809104026020016040519081016040528092919081815260200182805461040e90610bb5565b80156104595780601f1061043057610100808354040283529160200191610459565b820191905f5260205f20905b81548152906001019060200180831161043c57829003601f168201915b5050505050815260200160018201805461047290610bb5565b80601f016020809104026020016040519081016040528092919081815260200182805461049e90610bb5565b80156104e95780601f106104c0576101008083540402835291602001916104e9565b820191905f5260205f20905b8154815290600101906020018083116104cc57829003601f168201915b50505091835250506002828101546001600160a01b031660208301526003830154604083015260048301546060830152600583015460809092019160ff169081111561053757610537610a1f565b600281111561054857610548610a1f565b90525092915050565b5f5481106105715760405162461bcd60e51b81526004016101b490610b7d565b5f5f828154811061058457610584610ba1565b5f918252602082206006909102019150600582015460ff1660028111156105ad576105ad610a1f565b146105e75760405162461bcd60e51b815260206004820152600a6024820152694e6f742061637469766560b01b60448201526064016101b4565b5f341161061f5760405162461bcd60e51b815260206004820152600660248201526509cde408aa8960d31b60448201526064016101b4565b34816004015f8282546106329190610c01565b90915550506004810154604080513481526020810192909252339184917fdcfa71ee125a676f843733d9d39dce2c918ecf9e92f96db4f24bdb5244ed68a0910160405180910390a380600301548160040154106106995760058101805460ff191660011790555b5050565b836106db5760405162461bcd60e51b815260206004820152600e60248201526d151a5d1b19481c995c5d5a5c995960921b60448201526064016101b4565b5f811161071d5760405162461bcd60e51b815260206004820152601060248201526f0476f616c206d757374206265203e20360841b60448201526064016101b4565b60405163b9209e3360e01b81523360048201527f00000000000000000000000000000000000000000000000000000000000000006001600160a01b03169063b9209e3390602401602060405180830381865afa15801561077f573d5f5f3e3d5ffd5b505050506040513d601f19601f820116820180604052508101906107a39190610c1a565b6107e25760405162461bcd60e51b815260206004820152601060248201526f139bdd0812d650c81d995c9a599a595960821b60448201526064016101b4565b6040805160e06020601f8801819004028201810190925260c081018681525f9282919089908990819085018382808284375f92019190915250505090825250604080516020601f8801819004810282018101909252868152918101919087908790819084018382808284375f92018290525093855250503360208401525060408201859052606082018190526080909101525f80546001810182559080528151919250829160069091027f290decd9548b62a8d60345a988386fc84ba6bc95484008f6362f93160ef3e563019081906108bb9082610ca0565b50602082015160018201906108d09082610ca0565b506040820151600282810180546001600160a01b0319166001600160a01b0390931692909217909155606083015160038301556080830151600483015560a08301516005830180549192909160ff191690600190849081111561093557610935610a1f565b0217905550505f5433915061094c90600190610d5b565b7f825fb10f7650ed27414d6f86acdf7d5946927d9b25001f045f1a2435deec02fe88888660405161097f93929190610d6e565b60405180910390a3505050505050565b6040518060c0016040528060608152602001606081526020015f6001600160a01b031681526020015f81526020015f81526020015f60028111156109d5576109d5610a1f565b905290565b5f602082840312156109ea575f5ffd5b5035919050565b5f81518084528060208401602086015e5f602082860101526020601f19601f83011685010191505092915050565b634e487b7160e01b5f52602160045260245ffd5b602081525f825160c06020840152610a4e60e08401826109f1565b90506020840151601f19848303016040850152610a6b82826109f1565b91505060018060a01b03604085015116606084015260608401516080840152608084015160a084015260a084015160038110610ab557634e487b7160e01b5f52602160045260245ffd5b60c0939093019290925250919050565b5f5f83601f840112610ad5575f5ffd5b50813567ffffffffffffffff811115610aec575f5ffd5b602083019150836020828501011115610b03575f5ffd5b9250929050565b5f5f5f5f5f60608688031215610b1e575f5ffd5b853567ffffffffffffffff811115610b34575f5ffd5b610b4088828901610ac5565b909650945050602086013567ffffffffffffffff811115610b5f575f5ffd5b610b6b88828901610ac5565b96999598509660400135949350505050565b6020808252600a9082015269125b9d985b1a59081a5960b21b604082015260600190565b634e487b7160e01b5f52603260045260245ffd5b600181811c90821680610bc957607f821691505b602082108103610be757634e487b7160e01b5f52602260045260245ffd5b50919050565b634e487b7160e01b5f52601160045260245ffd5b80820180821115610c1457610c14610bed565b92915050565b5f60208284031215610c2a575f5ffd5b81518015158114610c39575f5ffd5b9392505050565b634e487b7160e01b5f52604160045260245ffd5b601f821115610c9b57805f5260205f20601f840160051c81016020851015610c795750805b601f840160051c820191505b81811015610c98575f8155600101610c85565b50505b505050565b815167ffffffffffffffff811115610cba57610cba610c40565b610cce81610cc88454610bb5565b84610c54565b6020601f821160018114610d00575f8315610ce95750848201515b5f19600385901b1c1916600184901b178455610c98565b5f84815260208120601f198516915b82811015610d2f5787850151825560209485019460019092019101610d0f565b5084821015610d4c57868401515f19600387901b60f8161c191681555b50505050600190811b01905550565b81810381811115610c1457610c14610bed565b60408152826040820152828460608301375f606084830101525f6060601f19601f860116830101905082602083015294935050505056fea26469706673582212209104b30bd36e6b33cfcdc74406a91ee1c8a7234f82bca8a2ed04c98783530ed064736f6c634300081c0033",
  "linkReferences": {},
  "deployedLinkReferences": {},
  "immutableReferences": {
    "31": [
      {
        "length": 32,
        "start": 245
      },
      {
        "length": 32,
        "start": 1842
      }
    ],
    "33": [
      {
        "length": 32,
        "start": 339
      }
    ]
  },
  "inputSourceName": "project/contracts/Crowdfunding_Student.sol",
  "buildInfoId": "solc-0_8_28-f41721280c6f1b58005b007b8aeb6235074ee074"
}